{
  "contractName": "Registry",
  "abi": [
    {
      "constant": true,
      "inputs": [],
      "name": "name",
      "outputs": [
        {
          "name": "",
          "type": "string"
        }
      ],
      "payable": false,
      "stateMutability": "view",
      "type": "function"
    },
    {
      "constant": true,
      "inputs": [],
      "name": "version",
      "outputs": [
        {
          "name": "",
          "type": "string"
        }
      ],
      "payable": false,
      "stateMutability": "view",
      "type": "function"
    },
    {
      "constant": true,
      "inputs": [
        {
          "name": "",
          "type": "uint256"
        }
      ],
      "name": "challenges",
      "outputs": [
        {
          "name": "rewardPool",
          "type": "uint256"
        },
        {
          "name": "challenger",
          "type": "address"
        },
        {
          "name": "resolved",
          "type": "bool"
        },
        {
          "name": "stake",
          "type": "uint256"
        },
        {
          "name": "totalTokens",
          "type": "uint256"
        }
      ],
      "payable": false,
      "stateMutability": "view",
      "type": "function"
    },
    {
      "constant": true,
      "inputs": [
        {
          "name": "",
          "type": "bytes32"
        }
      ],
      "name": "listings",
      "outputs": [
        {
          "name": "applicationExpiry",
          "type": "uint256"
        },
        {
          "name": "whitelisted",
          "type": "bool"
        },
        {
          "name": "owner",
          "type": "address"
        },
        {
          "name": "unstakedDeposit",
          "type": "uint256"
        },
        {
          "name": "challengeID",
          "type": "uint256"
        }
      ],
      "payable": false,
      "stateMutability": "view",
      "type": "function"
    },
    {
      "constant": true,
      "inputs": [],
      "name": "parameterizer",
      "outputs": [
        {
          "name": "",
          "type": "address"
        }
      ],
      "payable": false,
      "stateMutability": "view",
      "type": "function"
    },
    {
      "constant": true,
      "inputs": [],
      "name": "token",
      "outputs": [
        {
          "name": "",
          "type": "address"
        }
      ],
      "payable": false,
      "stateMutability": "view",
      "type": "function"
    },
    {
      "constant": true,
      "inputs": [],
      "name": "voting",
      "outputs": [
        {
          "name": "",
          "type": "address"
        }
      ],
      "payable": false,
      "stateMutability": "view",
      "type": "function"
    },
    {
      "inputs": [
        {
          "name": "_tokenAddr",
          "type": "address"
        },
        {
          "name": "_plcrAddr",
          "type": "address"
        },
        {
          "name": "_paramsAddr",
          "type": "address"
        },
        {
          "name": "_name",
          "type": "string"
        }
      ],
      "payable": false,
      "stateMutability": "nonpayable",
      "type": "constructor"
    },
    {
      "anonymous": false,
      "inputs": [
        {
          "indexed": false,
          "name": "listingHash",
          "type": "bytes32"
        },
        {
          "indexed": false,
          "name": "deposit",
          "type": "uint256"
        },
        {
          "indexed": false,
          "name": "data",
          "type": "string"
        }
      ],
      "name": "_Application",
      "type": "event"
    },
    {
      "anonymous": false,
      "inputs": [
        {
          "indexed": false,
          "name": "listingHash",
          "type": "bytes32"
        },
        {
          "indexed": false,
          "name": "deposit",
          "type": "uint256"
        },
        {
          "indexed": false,
          "name": "pollID",
          "type": "uint256"
        },
        {
          "indexed": false,
          "name": "data",
          "type": "string"
        }
      ],
      "name": "_Challenge",
      "type": "event"
    },
    {
      "anonymous": false,
      "inputs": [
        {
          "indexed": false,
          "name": "listingHash",
          "type": "bytes32"
        },
        {
          "indexed": false,
          "name": "added",
          "type": "uint256"
        },
        {
          "indexed": false,
          "name": "newTotal",
          "type": "uint256"
        }
      ],
      "name": "_Deposit",
      "type": "event"
    },
    {
      "anonymous": false,
      "inputs": [
        {
          "indexed": false,
          "name": "listingHash",
          "type": "bytes32"
        },
        {
          "indexed": false,
          "name": "withdrew",
          "type": "uint256"
        },
        {
          "indexed": false,
          "name": "newTotal",
          "type": "uint256"
        }
      ],
      "name": "_Withdrawal",
      "type": "event"
    },
    {
      "anonymous": false,
      "inputs": [
        {
          "indexed": false,
          "name": "listingHash",
          "type": "bytes32"
        }
      ],
      "name": "_NewListingWhitelisted",
      "type": "event"
    },
    {
      "anonymous": false,
      "inputs": [
        {
          "indexed": false,
          "name": "listingHash",
          "type": "bytes32"
        }
      ],
      "name": "_ApplicationRemoved",
      "type": "event"
    },
    {
      "anonymous": false,
      "inputs": [
        {
          "indexed": false,
          "name": "listingHash",
          "type": "bytes32"
        }
      ],
      "name": "_ListingRemoved",
      "type": "event"
    },
    {
      "anonymous": false,
      "inputs": [
        {
          "indexed": false,
          "name": "challengeID",
          "type": "uint256"
        }
      ],
      "name": "_ChallengeFailed",
      "type": "event"
    },
    {
      "anonymous": false,
      "inputs": [
        {
          "indexed": false,
          "name": "challengeID",
          "type": "uint256"
        }
      ],
      "name": "_ChallengeSucceeded",
      "type": "event"
    },
    {
      "anonymous": false,
      "inputs": [
        {
          "indexed": false,
          "name": "voter",
          "type": "address"
        },
        {
          "indexed": false,
          "name": "challengeID",
          "type": "uint256"
        },
        {
          "indexed": false,
          "name": "reward",
          "type": "uint256"
        }
      ],
      "name": "_RewardClaimed",
      "type": "event"
    },
    {
      "constant": false,
      "inputs": [
        {
          "name": "_tokenAddr",
          "type": "address"
        },
        {
          "name": "_plcrAddr",
          "type": "address"
        },
        {
          "name": "_paramsAddr",
          "type": "address"
        },
        {
          "name": "_name",
          "type": "string"
        }
      ],
      "name": "setup",
      "outputs": [],
      "payable": false,
      "stateMutability": "nonpayable",
      "type": "function"
    },
    {
      "constant": false,
      "inputs": [
        {
          "name": "_listingHash",
          "type": "bytes32"
        },
        {
          "name": "_amount",
          "type": "uint256"
        },
        {
          "name": "_data",
          "type": "string"
        }
      ],
      "name": "apply",
      "outputs": [],
      "payable": false,
      "stateMutability": "nonpayable",
      "type": "function"
    },
    {
      "constant": false,
      "inputs": [
        {
          "name": "_listingHash",
          "type": "bytes32"
        },
        {
          "name": "_amount",
          "type": "uint256"
        }
      ],
      "name": "deposit",
      "outputs": [],
      "payable": false,
      "stateMutability": "nonpayable",
      "type": "function"
    },
    {
      "constant": false,
      "inputs": [
        {
          "name": "_listingHash",
          "type": "bytes32"
        },
        {
          "name": "_amount",
          "type": "uint256"
        }
      ],
      "name": "withdraw",
      "outputs": [],
      "payable": false,
      "stateMutability": "nonpayable",
      "type": "function"
    },
    {
      "constant": false,
      "inputs": [
        {
          "name": "_listingHash",
          "type": "bytes32"
        }
      ],
      "name": "exit",
      "outputs": [],
      "payable": false,
      "stateMutability": "nonpayable",
      "type": "function"
    },
    {
      "constant": false,
      "inputs": [
        {
          "name": "_listingHash",
          "type": "bytes32"
        },
        {
          "name": "_data",
          "type": "string"
        }
      ],
      "name": "challenge",
      "outputs": [
        {
          "name": "challengeID",
          "type": "uint256"
        }
      ],
      "payable": false,
      "stateMutability": "nonpayable",
      "type": "function"
    },
    {
      "constant": false,
      "inputs": [
        {
          "name": "_listingHash",
          "type": "bytes32"
        }
      ],
      "name": "updateStatus",
      "outputs": [],
      "payable": false,
      "stateMutability": "nonpayable",
      "type": "function"
    },
    {
      "constant": false,
      "inputs": [
        {
          "name": "_challengeID",
          "type": "uint256"
        },
        {
          "name": "_salt",
          "type": "uint256"
        }
      ],
      "name": "claimVoterReward",
      "outputs": [],
      "payable": false,
      "stateMutability": "nonpayable",
      "type": "function"
    },
    {
      "constant": true,
      "inputs": [
        {
          "name": "_voter",
          "type": "address"
        },
        {
          "name": "_challengeID",
          "type": "uint256"
        },
        {
          "name": "_salt",
          "type": "uint256"
        }
      ],
      "name": "voterReward",
      "outputs": [
        {
          "name": "",
          "type": "uint256"
        }
      ],
      "payable": false,
      "stateMutability": "view",
      "type": "function"
    },
    {
      "constant": true,
      "inputs": [
        {
          "name": "_listingHash",
          "type": "bytes32"
        }
      ],
      "name": "canBeWhitelisted",
      "outputs": [
        {
          "name": "",
          "type": "bool"
        }
      ],
      "payable": false,
      "stateMutability": "view",
      "type": "function"
    },
    {
      "constant": true,
      "inputs": [
        {
          "name": "_listingHash",
          "type": "bytes32"
        }
      ],
      "name": "isWhitelisted",
      "outputs": [
        {
          "name": "whitelisted",
          "type": "bool"
        }
      ],
      "payable": false,
      "stateMutability": "view",
      "type": "function"
    },
    {
      "constant": true,
      "inputs": [
        {
          "name": "_listingHash",
          "type": "bytes32"
        }
      ],
      "name": "appWasMade",
      "outputs": [
        {
          "name": "exists",
          "type": "bool"
        }
      ],
      "payable": false,
      "stateMutability": "view",
      "type": "function"
    },
    {
      "constant": true,
      "inputs": [
        {
          "name": "_listingHash",
          "type": "bytes32"
        }
      ],
      "name": "challengeExists",
      "outputs": [
        {
          "name": "",
          "type": "bool"
        }
      ],
      "payable": false,
      "stateMutability": "view",
      "type": "function"
    },
    {
      "constant": true,
      "inputs": [
        {
          "name": "_listingHash",
          "type": "bytes32"
        }
      ],
      "name": "challengeCanBeResolved",
      "outputs": [
        {
          "name": "",
          "type": "bool"
        }
      ],
      "payable": false,
      "stateMutability": "view",
      "type": "function"
    },
    {
      "constant": true,
      "inputs": [
        {
          "name": "_challengeID",
          "type": "uint256"
        }
      ],
      "name": "challengeWinnerReward",
      "outputs": [
        {
          "name": "",
          "type": "uint256"
        }
      ],
      "payable": false,
      "stateMutability": "view",
      "type": "function"
    },
    {
      "constant": true,
      "inputs": [
        {
          "name": "_challengeID",
          "type": "uint256"
        },
        {
          "name": "_voter",
          "type": "address"
        }
      ],
      "name": "voterCanClaimReward",
      "outputs": [
        {
          "name": "",
          "type": "bool"
        }
      ],
      "payable": false,
      "stateMutability": "view",
      "type": "function"
    }
  ],
  "bytecode": "0x60606040526040805190810160405280600181526020017f31000000000000000000000000000000000000000000000000000000000000008152506006908051906020019062000051929190620001ed565b5034156200005e57600080fd5b604051620033cd380380620033cd83398101604052808051906020019091908051906020019091908051906020019091908051820191905050620000b984848484620000c36401000000000262002843176401000000009004565b505050506200029c565b6000600360009054906101000a900473ffffffffffffffffffffffffffffffffffffffff1673ffffffffffffffffffffffffffffffffffffffff161415156200010b57600080fd5b83600360006101000a81548173ffffffffffffffffffffffffffffffffffffffff021916908373ffffffffffffffffffffffffffffffffffffffff16021790555082600460006101000a81548173ffffffffffffffffffffffffffffffffffffffff021916908373ffffffffffffffffffffffffffffffffffffffff16021790555081600560006101000a81548173ffffffffffffffffffffffffffffffffffffffff021916908373ffffffffffffffffffffffffffffffffffffffff1602179055508060079080519060200190620001e6929190620001ed565b5050505050565b828054600181600116156101000203166002900490600052602060002090601f016020900481019282601f106200023057805160ff191683800117855562000261565b8280016001018555821562000261579182015b828111156200026057825182559160200191906001019062000243565b5b50905062000270919062000274565b5090565b6200029991905b80821115620002955760008160009055506001016200027b565b5090565b90565b61312180620002ac6000396000f300606060405260043610610133576000357c0100000000000000000000000000000000000000000000000000000000900463ffffffff16806301a5e3fe14610138578063040cf0201461017757806306fdde03146101a75780630ca36263146102355780631b7bbecb1461025c5780631de26e161461029b5780632c69354a146102cb57806343cffefe146102f7578063504115521461034657806354fd4d501461037d57806358041da61461040b578063691a38ab1461046557806377609a41146104a457806389bb55c7146104e35780638a59eb56146105275780638cf8151f1461054e5780638f1d37761461058d578063a7aad3db14610610578063c18b8db41461066f578063e1e3f915146106f6578063f8150ed01461074b578063fc0c546a14610805578063fce1ccca1461085a575b600080fd5b341561014357600080fd5b61015d6004808035600019169060200190919050506108af565b604051808215151515815260200191505060405180910390f35b341561018257600080fd5b6101a56004808035600019169060200190919080359060200190919050506108e4565b005b34156101b257600080fd5b6101ba610bca565b6040518080602001828103825283818151815260200191508051906020019080838360005b838110156101fa5780820151818401526020810190506101df565b50505050905090810190601f1680156102275780820380516001836020036101000a031916815260200191505b509250505060405180910390f35b341561024057600080fd5b61025a600480803560001916906020019091905050610c68565b005b341561026757600080fd5b610281600480803560001916906020019091905050610d87565b604051808215151515815260200191505060405180910390f35b34156102a657600080fd5b6102c9600480803560001916906020019091908035906020019091905050610e02565b005b34156102d657600080fd5b6102f56004808035906020019091908035906020019091905050611010565b005b341561030257600080fd5b61033060048080356000191690602001909190803590602001908201803590602001919091929050506113da565b6040518082815260200191505060405180910390f35b341561035157600080fd5b6103676004808035906020019091905050611c76565b6040518082815260200191505060405180910390f35b341561038857600080fd5b610390611e7b565b6040518080602001828103825283818151815260200191508051906020019080838360005b838110156103d05780820151818401526020810190506103b5565b50505050905090810190601f1680156103fd5780820380516001836020036101000a031916815260200191505b509250505060405180910390f35b341561041657600080fd5b61044b600480803590602001909190803573ffffffffffffffffffffffffffffffffffffffff16906020019091905050611f19565b604051808215151515815260200191505060405180910390f35b341561047057600080fd5b61048a600480803560001916906020019091905050611f84565b604051808215151515815260200191505060405180910390f35b34156104af57600080fd5b6104c9600480803560001916906020019091905050612043565b604051808215151515815260200191505060405180910390f35b34156104ee57600080fd5b6105256004808035600019169060200190919080359060200190919080359060200190820180359060200191909192905050612137565b005b341561053257600080fd5b61054c600480803560001916906020019091905050612569565b005b341561055957600080fd5b6105736004808035600019169060200190919050506125e9565b604051808215151515815260200191505060405180910390f35b341561059857600080fd5b6105ae6004808035906020019091905050612613565b604051808681526020018573ffffffffffffffffffffffffffffffffffffffff1673ffffffffffffffffffffffffffffffffffffffff168152602001841515151581526020018381526020018281526020019550505050505060405180910390f35b341561061b57600080fd5b610659600480803573ffffffffffffffffffffffffffffffffffffffff16906020019091908035906020019091908035906020019091905050612676565b6040518082815260200191505060405180910390f35b341561067a57600080fd5b6106946004808035600019169060200190919050506127ba565b60405180868152602001851515151581526020018473ffffffffffffffffffffffffffffffffffffffff1673ffffffffffffffffffffffffffffffffffffffff1681526020018381526020018281526020019550505050505060405180910390f35b341561070157600080fd5b61070961281d565b604051808273ffffffffffffffffffffffffffffffffffffffff1673ffffffffffffffffffffffffffffffffffffffff16815260200191505060405180910390f35b341561075657600080fd5b610803600480803573ffffffffffffffffffffffffffffffffffffffff1690602001909190803573ffffffffffffffffffffffffffffffffffffffff1690602001909190803573ffffffffffffffffffffffffffffffffffffffff1690602001909190803590602001908201803590602001908080601f01602080910402602001604051908101604052809392919081815260200183838082843782019150505050505091905050612843565b005b341561081057600080fd5b61081861296a565b604051808273ffffffffffffffffffffffffffffffffffffffff1673ffffffffffffffffffffffffffffffffffffffff16815260200191505060405180910390f35b341561086557600080fd5b61086d612990565b604051808273ffffffffffffffffffffffffffffffffffffffff1673ffffffffffffffffffffffffffffffffffffffff16815260200191505060405180910390f35b600060026000836000191660001916815260200190815260200160002060010160009054906101000a900460ff169050919050565b600060026000846000191660001916815260200190815260200160002090503373ffffffffffffffffffffffffffffffffffffffff168160010160019054906101000a900473ffffffffffffffffffffffffffffffffffffffff1673ffffffffffffffffffffffffffffffffffffffff1614151561096157600080fd5b8060020154821115151561097457600080fd5b600560009054906101000a900473ffffffffffffffffffffffffffffffffffffffff1673ffffffffffffffffffffffffffffffffffffffff1663693ec85e6000604051602001526040518163ffffffff167c010000000000000000000000000000000000000000000000000000000002815260040180806020018281038252600a8152602001807f6d696e4465706f73697400000000000000000000000000000000000000000000815250602001915050602060405180830381600087803b1515610a3e57600080fd5b6102c65a03f11515610a4f57600080fd5b505050604051805190508282600201540310151515610a6d57600080fd5b600360009054906101000a900473ffffffffffffffffffffffffffffffffffffffff1673ffffffffffffffffffffffffffffffffffffffff1663a9059cbb33846000604051602001526040518363ffffffff167c0100000000000000000000000000000000000000000000000000000000028152600401808373ffffffffffffffffffffffffffffffffffffffff1673ffffffffffffffffffffffffffffffffffffffff16815260200182815260200192505050602060405180830381600087803b1515610b3a57600080fd5b6102c65a03f11515610b4b57600080fd5b505050604051805190501515610b6057600080fd5b8181600201600082825403925050819055507febf81d30de8bdb30e2a07a5e34bd7c1b843c5b9674b224113cc6cee0d8571c9283838360020154604051808460001916600019168152602001838152602001828152602001935050505060405180910390a1505050565b60078054600181600116156101000203166002900480601f016020809104026020016040519081016040528092919081815260200182805460018160011615610100020316600290048015610c605780601f10610c3557610100808354040283529160200191610c60565b820191906000526020600020905b815481529060010190602001808311610c4357829003601f168201915b505050505081565b600060026000836000191660001916815260200190815260200160002090508060010160019054906101000a900473ffffffffffffffffffffffffffffffffffffffff1673ffffffffffffffffffffffffffffffffffffffff163373ffffffffffffffffffffffffffffffffffffffff16141515610ce557600080fd5b610cee826108af565b1515610cf957600080fd5b600081600301541480610d305750600160008260030154815260200190815260200160002060010160149054906101000a900460ff165b1515610d3b57600080fd5b610d44826129b6565b7fd1ffb796b7108387b2f02adf47b4b81a1690cf2a190422c87a4f670780103e638260405180826000191660001916815260200191505060405180910390a15050565b600080600260008460001916600019168152602001908152602001600020600301549050600060026000856000191660001916815260200190815260200160002060030154118015610dfa57506001600082815260200190815260200160002060010160149054906101000a900460ff16155b915050919050565b600060026000846000191660001916815260200190815260200160002090503373ffffffffffffffffffffffffffffffffffffffff168160010160019054906101000a900473ffffffffffffffffffffffffffffffffffffffff1673ffffffffffffffffffffffffffffffffffffffff16141515610e7f57600080fd5b600360009054906101000a900473ffffffffffffffffffffffffffffffffffffffff1673ffffffffffffffffffffffffffffffffffffffff166323b872dd3330856000604051602001526040518463ffffffff167c0100000000000000000000000000000000000000000000000000000000028152600401808473ffffffffffffffffffffffffffffffffffffffff1673ffffffffffffffffffffffffffffffffffffffff1681526020018373ffffffffffffffffffffffffffffffffffffffff1673ffffffffffffffffffffffffffffffffffffffff1681526020018281526020019350505050602060405180830381600087803b1515610f8057600080fd5b6102c65a03f11515610f9157600080fd5b505050604051805190501515610fa657600080fd5b8181600201600082825401925050819055507f77e303d2327bb214eb0f6441b799c7b1de3cea010185c2a27a60cbd774e590c283838360020154604051808460001916600019168152602001838152602001828152602001935050505060405180910390a1505050565b600080600015156001600086815260200190815260200160002060040160003373ffffffffffffffffffffffffffffffffffffffff1673ffffffffffffffffffffffffffffffffffffffff16815260200190815260200160002060009054906101000a900460ff16151514151561108657600080fd5b600115156001600086815260200190815260200160002060010160149054906101000a900460ff1615151415156110bc57600080fd5b600460009054906101000a900473ffffffffffffffffffffffffffffffffffffffff1673ffffffffffffffffffffffffffffffffffffffff1663b43bd0693386866000604051602001526040518463ffffffff167c0100000000000000000000000000000000000000000000000000000000028152600401808473ffffffffffffffffffffffffffffffffffffffff1673ffffffffffffffffffffffffffffffffffffffff1681526020018381526020018281526020019350505050602060405180830381600087803b151561119157600080fd5b6102c65a03f115156111a257600080fd5b5050506040518051905091506111b9338585612676565b9050816001600086815260200190815260200160002060030160008282540392505081905550806001600086815260200190815260200160002060000160008282540392505081905550600360009054906101000a900473ffffffffffffffffffffffffffffffffffffffff1673ffffffffffffffffffffffffffffffffffffffff1663a9059cbb33836000604051602001526040518363ffffffff167c0100000000000000000000000000000000000000000000000000000000028152600401808373ffffffffffffffffffffffffffffffffffffffff1673ffffffffffffffffffffffffffffffffffffffff16815260200182815260200192505050602060405180830381600087803b15156112d057600080fd5b6102c65a03f115156112e157600080fd5b5050506040518051905015156112f657600080fd5b600180600086815260200190815260200160002060040160003373ffffffffffffffffffffffffffffffffffffffff1673ffffffffffffffffffffffffffffffffffffffff16815260200190815260200160002060006101000a81548160ff0219169083151502179055507f8df5fc7a83008bc089286a6396a5ede7efa20b39ccbac5255b8cc0b7b11b0a59338583604051808473ffffffffffffffffffffffffffffffffffffffff1673ffffffffffffffffffffffffffffffffffffffff168152602001838152602001828152602001935050505060405180910390a150505050565b6000806000806002600088600019166000191681526020019081526020016000209250600560009054906101000a900473ffffffffffffffffffffffffffffffffffffffff1673ffffffffffffffffffffffffffffffffffffffff1663693ec85e6000604051602001526040518163ffffffff167c010000000000000000000000000000000000000000000000000000000002815260040180806020018281038252600a8152602001807f6d696e4465706f73697400000000000000000000000000000000000000000000815250602001915050602060405180830381600087803b15156114c757600080fd5b6102c65a03f115156114d857600080fd5b5050506040518051905091506114ed876125e9565b8061150657508260010160009054906101000a900460ff165b151561151157600080fd5b6000836003015414806115485750600160008460030154815260200190815260200160002060010160149054906101000a900460ff165b151561155357600080fd5b818360020154101561157157611568876129b6565b60009350611c6c565b600360009054906101000a900473ffffffffffffffffffffffffffffffffffffffff1673ffffffffffffffffffffffffffffffffffffffff166323b872dd3330856000604051602001526040518463ffffffff167c0100000000000000000000000000000000000000000000000000000000028152600401808473ffffffffffffffffffffffffffffffffffffffff1673ffffffffffffffffffffffffffffffffffffffff1681526020018373ffffffffffffffffffffffffffffffffffffffff1673ffffffffffffffffffffffffffffffffffffffff1681526020018281526020019350505050602060405180830381600087803b151561167257600080fd5b6102c65a03f1151561168357600080fd5b50505060405180519050151561169857600080fd5b600460009054906101000a900473ffffffffffffffffffffffffffffffffffffffff1673ffffffffffffffffffffffffffffffffffffffff166332ed3d60600560009054906101000a900473ffffffffffffffffffffffffffffffffffffffff1673ffffffffffffffffffffffffffffffffffffffff1663693ec85e6000604051602001526040518163ffffffff167c010000000000000000000000000000000000000000000000000000000002815260040180806020018281038252600a8152602001807f766f746551756f72756d00000000000000000000000000000000000000000000815250602001915050602060405180830381600087803b15156117a057600080fd5b6102c65a03f115156117b157600080fd5b50505060405180519050600560009054906101000a900473ffffffffffffffffffffffffffffffffffffffff1673ffffffffffffffffffffffffffffffffffffffff1663693ec85e6000604051602001526040518163ffffffff167c010000000000000000000000000000000000000000000000000000000002815260040180806020018281038252600e8152602001807f636f6d6d697453746167654c656e000000000000000000000000000000000000815250602001915050602060405180830381600087803b151561188557600080fd5b6102c65a03f1151561189657600080fd5b50505060405180519050600560009054906101000a900473ffffffffffffffffffffffffffffffffffffffff1673ffffffffffffffffffffffffffffffffffffffff1663693ec85e6000604051602001526040518163ffffffff167c010000000000000000000000000000000000000000000000000000000002815260040180806020018281038252600e8152602001807f72657665616c53746167654c656e000000000000000000000000000000000000815250602001915050602060405180830381600087803b151561196a57600080fd5b6102c65a03f1151561197b57600080fd5b505050604051805190506000604051602001526040518463ffffffff167c0100000000000000000000000000000000000000000000000000000000028152600401808481526020018381526020018281526020019350505050602060405180830381600087803b15156119ed57600080fd5b6102c65a03f115156119fe57600080fd5b50505060405180519050905060a060405190810160405280606484600560009054906101000a900473ffffffffffffffffffffffffffffffffffffffff1673ffffffffffffffffffffffffffffffffffffffff1663693ec85e6000604051602001526040518163ffffffff167c010000000000000000000000000000000000000000000000000000000002815260040180806020018281038252600f8152602001807f64697370656e736174696f6e5063740000000000000000000000000000000000815250602001915050602060405180830381600087803b1515611ae357600080fd5b6102c65a03f11515611af457600080fd5b5050506040518051905060640302811515611b0b57fe5b0481526020013373ffffffffffffffffffffffffffffffffffffffff1681526020016000151581526020018381526020016000815250600160008381526020019081526020016000206000820151816000015560208201518160010160006101000a81548173ffffffffffffffffffffffffffffffffffffffff021916908373ffffffffffffffffffffffffffffffffffffffff16021790555060408201518160010160146101000a81548160ff02191690831515021790555060608201518160020155608082015181600301559050508083600301819055508183600201600082825403925050819055507f9a114fb0a925e49fdd5328ae588bc890c8e0d6bcd0fe0813b12aa8cb1b3ba85d87838389896040518086600019166000191681526020018581526020018481526020018060200182810382528484828181526020019250808284378201915050965050505050505060405180910390a18093505b5050509392505050565b60006001600083815260200190815260200160002060010160149054906101000a900460ff16158015611d595750600460009054906101000a900473ffffffffffffffffffffffffffffffffffffffff1673ffffffffffffffffffffffffffffffffffffffff1663ee684830836000604051602001526040518263ffffffff167c010000000000000000000000000000000000000000000000000000000002815260040180828152602001915050602060405180830381600087803b1515611d3d57600080fd5b6102c65a03f11515611d4e57600080fd5b505050604051805190505b1515611d6457600080fd5b6000600460009054906101000a900473ffffffffffffffffffffffffffffffffffffffff1673ffffffffffffffffffffffffffffffffffffffff1663053e71a6846000604051602001526040518263ffffffff167c010000000000000000000000000000000000000000000000000000000002815260040180828152602001915050602060405180830381600087803b1515611dff57600080fd5b6102c65a03f11515611e1057600080fd5b505050604051805190501415611e415760016000838152602001908152602001600020600201546002029050611e76565b600160008381526020019081526020016000206000015460016000848152602001908152602001600020600201546002020390505b919050565b60068054600181600116156101000203166002900480601f016020809104026020016040519081016040528092919081815260200182805460018160011615610100020316600290048015611f115780601f10611ee657610100808354040283529160200191611f11565b820191906000526020600020905b815481529060010190602001808311611ef457829003601f168201915b505050505081565b60006001600084815260200190815260200160002060040160008373ffffffffffffffffffffffffffffffffffffffff1673ffffffffffffffffffffffffffffffffffffffff16815260200190815260200160002060009054906101000a900460ff16905092915050565b600080600260008460001916600019168152602001908152602001600020600301549050611fb1836125e9565b8015611fda57504260026000856000191660001916815260200190815260200160002060000154105b8015611fec5750611fea836108af565b155b801561202a575060008114806120295750600115156001600083815260200190815260200160002060010160149054906101000a900460ff161515145b5b15612038576001915061203d565b600091505b50919050565b60008060026000846000191660001916815260200190815260200160002060030154905061207083610d87565b151561207b57600080fd5b600460009054906101000a900473ffffffffffffffffffffffffffffffffffffffff1673ffffffffffffffffffffffffffffffffffffffff1663ee684830826000604051602001526040518263ffffffff167c010000000000000000000000000000000000000000000000000000000002815260040180828152602001915050602060405180830381600087803b151561211457600080fd5b6102c65a03f1151561212557600080fd5b50505060405180519050915050919050565b6000612142856108af565b15151561214e57600080fd5b612157856125e9565b15151561216357600080fd5b600560009054906101000a900473ffffffffffffffffffffffffffffffffffffffff1673ffffffffffffffffffffffffffffffffffffffff1663693ec85e6000604051602001526040518163ffffffff167c010000000000000000000000000000000000000000000000000000000002815260040180806020018281038252600a8152602001807f6d696e4465706f73697400000000000000000000000000000000000000000000815250602001915050602060405180830381600087803b151561222d57600080fd5b6102c65a03f1151561223e57600080fd5b50505060405180519050841015151561225657600080fd5b6002600086600019166000191681526020019081526020016000209050338160010160016101000a81548173ffffffffffffffffffffffffffffffffffffffff021916908373ffffffffffffffffffffffffffffffffffffffff160217905550600360009054906101000a900473ffffffffffffffffffffffffffffffffffffffff1673ffffffffffffffffffffffffffffffffffffffff166323b872dd8260010160019054906101000a900473ffffffffffffffffffffffffffffffffffffffff1630876000604051602001526040518463ffffffff167c0100000000000000000000000000000000000000000000000000000000028152600401808473ffffffffffffffffffffffffffffffffffffffff1673ffffffffffffffffffffffffffffffffffffffff1681526020018373ffffffffffffffffffffffffffffffffffffffff1673ffffffffffffffffffffffffffffffffffffffff1681526020018281526020019350505050602060405180830381600087803b15156123db57600080fd5b6102c65a03f115156123ec57600080fd5b50505060405180519050151561240157600080fd5b600560009054906101000a900473ffffffffffffffffffffffffffffffffffffffff1673ffffffffffffffffffffffffffffffffffffffff1663693ec85e6000604051602001526040518163ffffffff167c010000000000000000000000000000000000000000000000000000000002815260040180806020018281038252600d8152602001807f6170706c7953746167654c656e00000000000000000000000000000000000000815250602001915050602060405180830381600087803b15156124cb57600080fd5b6102c65a03f115156124dc57600080fd5b50505060405180519050420181600001819055508381600201819055507f5cde15b9901ca13a7e2eb4fb919870d1bde9e8d93d9aa5e26945b42190067bdc8585858560405180856000191660001916815260200184815260200180602001828103825284848281815260200192508082843782019150509550505050505060405180910390a15050505050565b61257281611f84565b156125c45761258081612b73565b7fa7dee6157e26f0945c6e2fa27b51c0811370eb1863f1e5285e8dea4291fdd3de8160405180826000191660001916815260200191505060405180910390a16125e6565b6125cd81612043565b156125e0576125db81612bad565b6125e5565b600080fd5b5b50565b60008060026000846000191660001916815260200190815260200160002060000154119050919050565b60016020528060005260406000206000915090508060000154908060010160009054906101000a900473ffffffffffffffffffffffffffffffffffffffff16908060010160149054906101000a900460ff16908060020154908060030154905085565b6000806000806001600087815260200190815260200160002060030154925060016000878152602001908152602001600020600001549150600460009054906101000a900473ffffffffffffffffffffffffffffffffffffffff1673ffffffffffffffffffffffffffffffffffffffff1663b43bd0698888886000604051602001526040518463ffffffff167c0100000000000000000000000000000000000000000000000000000000028152600401808473ffffffffffffffffffffffffffffffffffffffff1673ffffffffffffffffffffffffffffffffffffffff1681526020018381526020018281526020019350505050602060405180830381600087803b151561278357600080fd5b6102c65a03f1151561279457600080fd5b505050604051805190509050828282028115156127ad57fe5b0493505050509392505050565b60026020528060005260406000206000915090508060000154908060010160009054906101000a900460ff16908060010160019054906101000a900473ffffffffffffffffffffffffffffffffffffffff16908060020154908060030154905085565b600560009054906101000a900473ffffffffffffffffffffffffffffffffffffffff1681565b6000600360009054906101000a900473ffffffffffffffffffffffffffffffffffffffff1673ffffffffffffffffffffffffffffffffffffffff1614151561288a57600080fd5b83600360006101000a81548173ffffffffffffffffffffffffffffffffffffffff021916908373ffffffffffffffffffffffffffffffffffffffff16021790555082600460006101000a81548173ffffffffffffffffffffffffffffffffffffffff021916908373ffffffffffffffffffffffffffffffffffffffff16021790555081600560006101000a81548173ffffffffffffffffffffffffffffffffffffffff021916908373ffffffffffffffffffffffffffffffffffffffff1602179055508060079080519060200190612963929190613050565b5050505050565b600360009054906101000a900473ffffffffffffffffffffffffffffffffffffffff1681565b600460009054906101000a900473ffffffffffffffffffffffffffffffffffffffff1681565b60006002600083600019166000191681526020019081526020016000209050600081600201541115612afe57600360009054906101000a900473ffffffffffffffffffffffffffffffffffffffff1673ffffffffffffffffffffffffffffffffffffffff1663a9059cbb8260010160019054906101000a900473ffffffffffffffffffffffffffffffffffffffff1683600201546000604051602001526040518363ffffffff167c0100000000000000000000000000000000000000000000000000000000028152600401808373ffffffffffffffffffffffffffffffffffffffff1673ffffffffffffffffffffffffffffffffffffffff16815260200182815260200192505050602060405180830381600087803b1515612ad757600080fd5b6102c65a03f11515612ae857600080fd5b505050604051805190501515612afd57600080fd5b5b6002600083600019166000191681526020019081526020016000206000808201600090556001820160006101000a81549060ff02191690556001820160016101000a81549073ffffffffffffffffffffffffffffffffffffffff02191690556002820160009055600382016000905550505050565b600160026000836000191660001916815260200190815260200160002060010160006101000a81548160ff02191690831515021790555050565b6000806000600260008560001916600019168152602001908152602001600020600301549250612bdc83611c76565b9150612be7846108af565b9050600460009054906101000a900473ffffffffffffffffffffffffffffffffffffffff1673ffffffffffffffffffffffffffffffffffffffff166349403183846000604051602001526040518263ffffffff167c010000000000000000000000000000000000000000000000000000000002815260040180828152602001915050602060405180830381600087803b1515612c8257600080fd5b6102c65a03f11515612c9357600080fd5b5050506040518051905015612d5a57612cab84612b73565b81600260008660001916600019168152602001908152602001600020600201600082825401925050819055507f0596bd84e3e7dc311a8d2e32425107e3c27acef96831b8cf2a2abcae2609461f836040518082815260200191505060405180910390a1801515612d55577fa7dee6157e26f0945c6e2fa27b51c0811370eb1863f1e5285e8dea4291fdd3de8460405180826000191660001916815260200191505060405180910390a15b612f4e565b612d63846129b6565b600360009054906101000a900473ffffffffffffffffffffffffffffffffffffffff1673ffffffffffffffffffffffffffffffffffffffff1663a9059cbb6001600086815260200190815260200160002060010160009054906101000a900473ffffffffffffffffffffffffffffffffffffffff16846000604051602001526040518363ffffffff167c0100000000000000000000000000000000000000000000000000000000028152600401808373ffffffffffffffffffffffffffffffffffffffff1673ffffffffffffffffffffffffffffffffffffffff16815260200182815260200192505050602060405180830381600087803b1515612e6657600080fd5b6102c65a03f11515612e7757600080fd5b505050604051805190501515612e8c57600080fd5b7f88e47f2988d22858b92549596d2d6a57f107680fc7dc7dcf9dc52a06159e268c836040518082815260200191505060405180910390a18015612f0d577fd1ffb796b7108387b2f02adf47b4b81a1690cf2a190422c87a4f670780103e638460405180826000191660001916815260200191505060405180910390a1612f4d565b7f2e5ec035f6eac8ff1cf7cdf36cfeca7c85413f9f67652dc2c13d20f337204a268460405180826000191660001916815260200191505060405180910390a15b5b600180600085815260200190815260200160002060010160146101000a81548160ff021916908315150217905550600460009054906101000a900473ffffffffffffffffffffffffffffffffffffffff1673ffffffffffffffffffffffffffffffffffffffff1663053e71a6846000604051602001526040518263ffffffff167c010000000000000000000000000000000000000000000000000000000002815260040180828152602001915050602060405180830381600087803b151561301557600080fd5b6102c65a03f1151561302657600080fd5b50505060405180519050600160008581526020019081526020016000206003018190555050505050565b828054600181600116156101000203166002900490600052602060002090601f016020900481019282601f1061309157805160ff19168380011785556130bf565b828001600101855582156130bf579182015b828111156130be5782518255916020019190600101906130a3565b5b5090506130cc91906130d0565b5090565b6130f291905b808211156130ee5760008160009055506001016130d6565b5090565b905600a165627a7a72305820fa5f97fab78c2437f22f32be37603fcf1f96e3d3136095ae2fffd942acb6d7e30029",
  "source": "pragma solidity ^0.4.11;\n\nimport \"../installed_contracts/tokens/contracts/eip20/EIP20.sol\";\nimport \"./Parameterizer.sol\";\nimport \"./PLCRVoting.sol\";\n\ncontract Registry {\n\n    // ------\n    // EVENTS\n    // ------\n\n    event _Application(bytes32 listingHash, uint deposit, string data);\n    event _Challenge(bytes32 listingHash, uint deposit, uint pollID, string data);\n    event _Deposit(bytes32 listingHash, uint added, uint newTotal);\n    event _Withdrawal(bytes32 listingHash, uint withdrew, uint newTotal);\n    event _NewListingWhitelisted(bytes32 listingHash);\n    event _ApplicationRemoved(bytes32 listingHash);\n    event _ListingRemoved(bytes32 listingHash);\n    event _ChallengeFailed(uint challengeID);\n    event _ChallengeSucceeded(uint challengeID);\n    event _RewardClaimed(address voter, uint challengeID, uint reward);\n\n    // ------\n    // DATA STRUCTURES\n    // ------\n\n    struct Listing {\n        uint applicationExpiry; // Expiration date of apply stage\n        bool whitelisted;       // Indicates registry status\n        address owner;          // Owner of Listing\n        uint unstakedDeposit;   // Number of tokens in the listing not locked in a challenge\n        uint challengeID;       // Corresponds to a PollID in PLCRVoting\n    }\n\n    struct Challenge {\n        uint rewardPool;        // (remaining) Pool of tokens to be distributed to winning voters\n        address challenger;     // Owner of Challenge\n        bool resolved;          // Indication of if challenge is resolved\n        uint stake;             // Number of tokens at stake for either party during challenge\n        uint totalTokens;       // (remaining) Number of tokens used in voting by the winning side\n        mapping(address => bool) voterCanClaimReward; // Indicates whether a voter has claimed a reward yet\n    }\n\n    // ------\n    // STATE\n    // ------\n\n    Registry masterCopy; // THIS MUST ALWAYS BE THE FIRST STATE VARIABLE DECLARED!!!!!!\n\n    // Maps challengeIDs to associated challenge data\n    mapping(uint => Challenge) public challenges;\n\n    // Maps listingHashes to associated listingHash data\n    mapping(bytes32 => Listing) public listings;\n\n    // Global Variables\n    EIP20 public token;\n    PLCRVoting public voting;\n    Parameterizer public parameterizer;\n\n    string public version = '1';\n    string public name;\n\n    // ------------\n    // CONSTRUCTOR:\n    // ------------\n\n    /**\n    @dev Contructor         Sets the addresses for token, voting, and parameterizer\n    @param _tokenAddr       Address of the TCR's intrinsic ERC20 token\n    @param _plcrAddr        Address of a PLCR voting contract for the provided token\n    @param _paramsAddr      Address of a Parameterizer contract\n    */\n    function Registry(\n        address _tokenAddr,\n        address _plcrAddr,\n        address _paramsAddr,\n        string _name\n    ) public {\n      setup(_tokenAddr, _plcrAddr, _paramsAddr, _name);\n    }\n\n    function setup(\n        address _tokenAddr,\n        address _plcrAddr,\n        address _paramsAddr,\n        string _name\n    ) public {\n        require(address(token) == 0);\n\n        token = EIP20(_tokenAddr);\n        voting = PLCRVoting(_plcrAddr);\n        parameterizer = Parameterizer(_paramsAddr);\n        name = _name;\n    }\n\n    // --------------------\n    // PUBLISHER INTERFACE:\n    // --------------------\n\n    /**\n    @dev                Allows a user to start an application. Takes tokens from user and sets\n                        apply stage end time.\n    @param _listingHash The hash of a potential listing a user is applying to add to the registry\n    @param _amount      The number of ERC20 tokens a user is willing to potentially stake\n    @param _data        Extra data relevant to the application. Think IPFS hashes.\n    */\n    function apply(bytes32 _listingHash, uint _amount, string _data) external {\n        require(!isWhitelisted(_listingHash));\n        require(!appWasMade(_listingHash));\n        require(_amount >= parameterizer.get(\"minDeposit\"));\n\n        // Sets owner\n        Listing storage listing = listings[_listingHash];\n        listing.owner = msg.sender;\n\n        // Transfers tokens from user to Registry contract\n        require(token.transferFrom(listing.owner, this, _amount));\n\n        // Sets apply stage end time\n        listing.applicationExpiry = block.timestamp + parameterizer.get(\"applyStageLen\");\n        listing.unstakedDeposit = _amount;\n\n        _Application(_listingHash, _amount, _data);\n    }\n\n    /**\n    @dev                Allows the owner of a listingHash to increase their unstaked deposit.\n    @param _listingHash A listingHash msg.sender is the owner of\n    @param _amount      The number of ERC20 tokens to increase a user's unstaked deposit\n    */\n    function deposit(bytes32 _listingHash, uint _amount) external {\n        Listing storage listing = listings[_listingHash];\n\n        require(listing.owner == msg.sender);\n        require(token.transferFrom(msg.sender, this, _amount));\n\n        listing.unstakedDeposit += _amount;\n\n        _Deposit(_listingHash, _amount, listing.unstakedDeposit);\n    }\n\n    /**\n    @dev                Allows the owner of a listingHash to decrease their unstaked deposit.\n    @param _listingHash A listingHash msg.sender is the owner of.\n    @param _amount      The number of ERC20 tokens to withdraw from the unstaked deposit.\n    */\n    function withdraw(bytes32 _listingHash, uint _amount) external {\n        Listing storage listing = listings[_listingHash];\n\n        require(listing.owner == msg.sender);\n        require(_amount <= listing.unstakedDeposit);\n        require(listing.unstakedDeposit - _amount >= parameterizer.get(\"minDeposit\"));\n\n        require(token.transfer(msg.sender, _amount));\n\n        listing.unstakedDeposit -= _amount;\n\n        _Withdrawal(_listingHash, _amount, listing.unstakedDeposit);\n    }\n\n    /**\n    @dev                Allows the owner of a listingHash to remove the listingHash from the whitelist\n                        Returns all tokens to the owner of the listingHash\n    @param _listingHash A listingHash msg.sender is the owner of.\n    */\n    function exit(bytes32 _listingHash) external {\n        Listing storage listing = listings[_listingHash];\n\n        require(msg.sender == listing.owner);\n        require(isWhitelisted(_listingHash));\n\n        // Cannot exit during ongoing challenge\n        require(listing.challengeID == 0 || challenges[listing.challengeID].resolved);\n\n        // Remove listingHash & return tokens\n        resetListing(_listingHash);\n\n        _ListingRemoved(_listingHash);\n    }\n\n    // -----------------------\n    // TOKEN HOLDER INTERFACE:\n    // -----------------------\n\n    /**\n    @dev                Starts a poll for a listingHash which is either in the apply stage or\n                        already in the whitelist. Tokens are taken from the challenger and the\n                        applicant's deposits are locked.\n    @param _listingHash The listingHash being challenged, whether listed or in application\n    @param _data        Extra data relevant to the challenge. Think IPFS hashes.\n    */\n    function challenge(bytes32 _listingHash, string _data) external returns (uint challengeID) {\n        Listing storage listing = listings[_listingHash];\n        uint deposit = parameterizer.get(\"minDeposit\");\n\n        // Listing must be in apply stage or already on the whitelist\n        require(appWasMade(_listingHash) || listing.whitelisted);\n        // Prevent multiple challenges\n        require(listing.challengeID == 0 || challenges[listing.challengeID].resolved);\n\n        if (listing.unstakedDeposit < deposit) {\n            // Not enough tokens, listingHash auto-delisted\n            resetListing(_listingHash);\n            return 0;\n        }\n\n        // Takes tokens from challenger\n        require(token.transferFrom(msg.sender, this, deposit));\n\n        // Starts poll\n        uint pollID = voting.startPoll(\n            parameterizer.get(\"voteQuorum\"),\n            parameterizer.get(\"commitStageLen\"),\n            parameterizer.get(\"revealStageLen\")\n        );\n\n        challenges[pollID] = Challenge({\n            challenger: msg.sender,\n            rewardPool: ((100 - parameterizer.get(\"dispensationPct\")) * deposit) / 100,\n            stake: deposit,\n            resolved: false,\n            totalTokens: 0\n        });\n\n        // Updates listingHash to store most recent challenge\n        listing.challengeID = pollID;\n\n        // Locks tokens for listingHash during challenge\n        listing.unstakedDeposit -= deposit;\n\n        _Challenge(_listingHash, deposit, pollID, _data);\n        return pollID;\n    }\n\n    /**\n    @dev                Updates a listingHash's status from 'application' to 'listing' or resolves\n                        a challenge if one exists.\n    @param _listingHash The listingHash whose status is being updated\n    */\n    function updateStatus(bytes32 _listingHash) public {\n        if (canBeWhitelisted(_listingHash)) {\n          whitelistApplication(_listingHash);\n          _NewListingWhitelisted(_listingHash);\n        } else if (challengeCanBeResolved(_listingHash)) {\n          resolveChallenge(_listingHash);\n        } else {\n          revert();\n        }\n    }\n\n    // ----------------\n    // TOKEN FUNCTIONS:\n    // ----------------\n\n    /**\n    @dev                Called by a voter to claim their reward for each completed vote. Someone\n                        must call updateStatus() before this can be called.\n    @param _challengeID The PLCR pollID of the challenge a reward is being claimed for\n    @param _salt        The salt of a voter's commit hash in the given poll\n    */\n    function claimVoterReward(uint _challengeID, uint _salt) public {\n        // Ensures the voter has not already claimed tokens and challenge results have been processed\n        require(challenges[_challengeID].voterCanClaimReward[msg.sender] == false);\n        require(challenges[_challengeID].resolved == true);\n\n        uint voterTokens = voting.getNumPassingTokens(msg.sender, _challengeID, _salt);\n        uint reward = voterReward(msg.sender, _challengeID, _salt);\n\n        // Subtracts the voter's information to preserve the participation ratios\n        // of other voters compared to the remaining pool of rewards\n        challenges[_challengeID].totalTokens -= voterTokens;\n        challenges[_challengeID].rewardPool -= reward;\n\n        require(token.transfer(msg.sender, reward));\n\n        // Ensures a voter cannot claim tokens again\n        challenges[_challengeID].voterCanClaimReward[msg.sender] = true;\n\n        _RewardClaimed(msg.sender, _challengeID, reward);\n    }\n\n    // --------\n    // GETTERS:\n    // --------\n\n    /**\n    @dev                Calculates the provided voter's token reward for the given poll.\n    @param _voter       The address of the voter whose reward balance is to be returned\n    @param _challengeID The pollID of the challenge a reward balance is being queried for\n    @param _salt        The salt of the voter's commit hash in the given poll\n    @return             The uint indicating the voter's reward\n    */\n    function voterReward(address _voter, uint _challengeID, uint _salt)\n    public view returns (uint) {\n        uint totalTokens = challenges[_challengeID].totalTokens;\n        uint rewardPool = challenges[_challengeID].rewardPool;\n        uint voterTokens = voting.getNumPassingTokens(_voter, _challengeID, _salt);\n        return (voterTokens * rewardPool) / totalTokens;\n    }\n\n    /**\n    @dev                Determines whether the given listingHash be whitelisted.\n    @param _listingHash The listingHash whose status is to be examined\n    */\n    function canBeWhitelisted(bytes32 _listingHash) view public returns (bool) {\n        uint challengeID = listings[_listingHash].challengeID;\n\n        // Ensures that the application was made,\n        // the application period has ended,\n        // the listingHash can be whitelisted,\n        // and either: the challengeID == 0, or the challenge has been resolved.\n        if (\n            appWasMade(_listingHash) &&\n            listings[_listingHash].applicationExpiry < now &&\n            !isWhitelisted(_listingHash) &&\n            (challengeID == 0 || challenges[challengeID].resolved == true)\n        ) { return true; }\n\n        return false;\n    }\n\n    /**\n    @dev                Returns true if the provided listingHash is whitelisted\n    @param _listingHash The listingHash whose status is to be examined\n    */\n    function isWhitelisted(bytes32 _listingHash) view public returns (bool whitelisted) {\n        return listings[_listingHash].whitelisted;\n    }\n\n    /**\n    @dev                Returns true if apply was called for this listingHash\n    @param _listingHash The listingHash whose status is to be examined\n    */\n    function appWasMade(bytes32 _listingHash) view public returns (bool exists) {\n        return listings[_listingHash].applicationExpiry > 0;\n    }\n\n    /**\n    @dev                Returns true if the application/listingHash has an unresolved challenge\n    @param _listingHash The listingHash whose status is to be examined\n    */\n    function challengeExists(bytes32 _listingHash) view public returns (bool) {\n        uint challengeID = listings[_listingHash].challengeID;\n\n        return (listings[_listingHash].challengeID > 0 && !challenges[challengeID].resolved);\n    }\n\n    /**\n    @dev                Determines whether voting has concluded in a challenge for a given\n                        listingHash. Throws if no challenge exists.\n    @param _listingHash A listingHash with an unresolved challenge\n    */\n    function challengeCanBeResolved(bytes32 _listingHash) view public returns (bool) {\n        uint challengeID = listings[_listingHash].challengeID;\n\n        require(challengeExists(_listingHash));\n\n        return voting.pollEnded(challengeID);\n    }\n\n    /**\n    @dev                Determines the number of tokens awarded to the winning party in a challenge.\n    @param _challengeID The challengeID to determine a reward for\n    */\n    function challengeWinnerReward(uint _challengeID) public view returns (uint) {\n        require(!challenges[_challengeID].resolved && voting.pollEnded(_challengeID));\n\n        // Edge case, nobody voted, give all tokens to the challenger.\n        if (voting.getTotalNumberOfTokensForWinningOption(_challengeID) == 0) {\n            return 2 * challenges[_challengeID].stake;\n        }\n\n        return (2 * challenges[_challengeID].stake) - challenges[_challengeID].rewardPool;\n    }\n\n    /**\n    @dev                Getter for Challenge voterCanClaimReward mappings\n    @param _challengeID The challengeID to query\n    @param _voter       The voter whose claim status to query for the provided challengeID\n    */\n    function voterCanClaimReward(uint _challengeID, address _voter) public view returns (bool) {\n      return challenges[_challengeID].voterCanClaimReward[_voter];\n    }\n\n    // ----------------\n    // PRIVATE FUNCTIONS:\n    // ----------------\n\n    /**\n    @dev                Determines the winner in a challenge. Rewards the winner tokens and\n                        either whitelists or de-whitelists the listingHash.\n    @param _listingHash A listingHash with a challenge that is to be resolved\n    */\n    function resolveChallenge(bytes32 _listingHash) private {\n        uint challengeID = listings[_listingHash].challengeID;\n\n        // Calculates the winner's reward,\n        // which is: (winner's full stake) + (dispensationPct * loser's stake)\n        uint reward = challengeWinnerReward(challengeID);\n\n        // Records whether the listingHash is a listingHash or an application\n        bool wasWhitelisted = isWhitelisted(_listingHash);\n\n        // Case: challenge failed\n        if (voting.isPassed(challengeID)) {\n            whitelistApplication(_listingHash);\n            // Unlock stake so that it can be retrieved by the applicant\n            listings[_listingHash].unstakedDeposit += reward;\n\n            _ChallengeFailed(challengeID);\n            if (!wasWhitelisted) { _NewListingWhitelisted(_listingHash); }\n        }\n        // Case: challenge succeeded\n        else {\n            resetListing(_listingHash);\n            // Transfer the reward to the challenger\n            require(token.transfer(challenges[challengeID].challenger, reward));\n\n            _ChallengeSucceeded(challengeID);\n            if (wasWhitelisted) { _ListingRemoved(_listingHash); }\n            else { _ApplicationRemoved(_listingHash); }\n        }\n\n        // Sets flag on challenge being processed\n        challenges[challengeID].resolved = true;\n\n        // Stores the total tokens used for voting by the winning side for reward purposes\n        challenges[challengeID].totalTokens =\n            voting.getTotalNumberOfTokensForWinningOption(challengeID);\n    }\n\n    /**\n    @dev                Called by updateStatus() if the applicationExpiry date passed without a\n                        challenge being made. Called by resolveChallenge() if an\n                        application/listing beat a challenge.\n    @param _listingHash The listingHash of an application/listingHash to be whitelisted\n    */\n    function whitelistApplication(bytes32 _listingHash) private {\n        listings[_listingHash].whitelisted = true;\n    }\n\n    /**\n    @dev                Deletes a listingHash from the whitelist and transfers tokens back to owner\n    @param _listingHash The listing hash to delete\n    */\n    function resetListing(bytes32 _listingHash) private {\n        Listing storage listing = listings[_listingHash];\n\n        // Transfers any remaining balance back to the owner\n        if (listing.unstakedDeposit > 0)\n            require(token.transfer(listing.owner, listing.unstakedDeposit));\n\n        delete listings[_listingHash];\n    }\n}\n",
  "sourcePath": "/Users/cwhinfrey/projects/ethereum/LevelK/ttcr/contracts/Registry.sol",
  "compiler": {
    "name": "solc",
    "version": "0.4.19+commit.c4cbbb05.Emscripten.clang"
  },
  "schemaVersion": "1.0.1",
  "updatedAt": "2018-03-16T21:17:19.835Z"
}